{
  "_format": "hh-sol-artifact-1",
  "contractName": "Wall",
  "sourceName": "contracts/Wall.sol",
  "abi": [
    {
      "inputs": [],
      "stateMutability": "payable",
      "type": "constructor"
    },
    {
      "anonymous": false,
      "inputs": [
        {
          "indexed": true,
          "internalType": "address",
          "name": "from",
          "type": "address"
        },
        {
          "indexed": false,
          "internalType": "uint256",
          "name": "timestamp",
          "type": "uint256"
        },
        {
          "indexed": false,
          "internalType": "string",
          "name": "message",
          "type": "string"
        },
        {
          "indexed": false,
          "internalType": "uint256",
          "name": "amount",
          "type": "uint256"
        }
      ],
      "name": "newMessage",
      "type": "event"
    },
    {
      "inputs": [],
      "name": "getMessages",
      "outputs": [
        {
          "components": [
            {
              "internalType": "address",
              "name": "_user",
              "type": "address"
            },
            {
              "internalType": "string",
              "name": "message",
              "type": "string"
            },
            {
              "internalType": "uint256",
              "name": "timestamp",
              "type": "uint256"
            },
            {
              "internalType": "uint256",
              "name": "amount",
              "type": "uint256"
            }
          ],
          "internalType": "struct Wall.User[]",
          "name": "",
          "type": "tuple[]"
        }
      ],
      "stateMutability": "view",
      "type": "function"
    },
    {
      "inputs": [
        {
          "internalType": "string",
          "name": "_message",
          "type": "string"
        }
      ],
      "name": "setMessage",
      "outputs": [],
      "stateMutability": "payable",
      "type": "function"
    }
  ],
  "bytecode": "0x60806040527341beb715fe306d589da4998dde2be0da23d869826000806101000a81548173ffffffffffffffffffffffffffffffffffffffff021916908373ffffffffffffffffffffffffffffffffffffffff160217905550620000a36040518060400160405280601081526020017f436f6e7472616374207374617274732100000000000000000000000000000000815250620000a960201b620005931760201c565b6200023d565b6200014981604051602401620000c09190620001b6565b6040516020818303038152906040527f41304fac000000000000000000000000000000000000000000000000000000007bffffffffffffffffffffffffffffffffffffffffffffffffffffffff19166020820180517bffffffffffffffffffffffffffffffffffffffffffffffffffffffff83818316178352505050506200014c60201b60201c565b50565b60008151905060006a636f6e736f6c652e6c6f679050602083016000808483855afa5050505050565b60006200018282620001da565b6200018e8185620001e5565b9350620001a0818560208601620001f6565b620001ab816200022c565b840191505092915050565b60006020820190508181036000830152620001d2818462000175565b905092915050565b600081519050919050565b600082825260208201905092915050565b60005b8381101562000216578082015181840152602081019050620001f9565b8381111562000226576000848401525b50505050565b6000601f19601f8301169050919050565b610de0806200024d6000396000f3fe6080604052600436106100295760003560e01c8063368b87721461002e5780635ff6cbf31461004a575b600080fd5b610048600480360381019061004391906107fc565b610075565b005b34801561005657600080fd5b5061005f610438565b60405161006c9190610a0e565b60405180910390f35b6100eb6040518060400160405280601981526020017f42616c616e6365206f66206f776e6572206265666f72653a200000000000000081525060008054906101000a900473ffffffffffffffffffffffffffffffffffffffff1673ffffffffffffffffffffffffffffffffffffffff163161062c565b6101416040518060400160405280601a81526020017f42616c616e6365206f662073656e646572206265666f72653a200000000000008152503373ffffffffffffffffffffffffffffffffffffffff163161062c565b600066038d7ea4c68000905061018c6040518060400160405280600b81526020017f6d696e416d6f756e743a200000000000000000000000000000000000000000008152508261062c565b343373ffffffffffffffffffffffffffffffffffffffff163110156101e6576040517f08c379a00000000000000000000000000000000000000000000000000000000081526004016101dd90610a82565b60405180910390fd5b80341015610229576040517f08c379a000000000000000000000000000000000000000000000000000000000815260040161022090610aa2565b60405180910390fd5b60008054906101000a900473ffffffffffffffffffffffffffffffffffffffff1673ffffffffffffffffffffffffffffffffffffffff166108fc349081150290604051600060405180830381858888f1935050505015801561028f573d6000803e3d6000fd5b50600160405180608001604052803373ffffffffffffffffffffffffffffffffffffffff16815260200184815260200142815260200134815250908060018154018082558091505060019003906000526020600020906004020160009091909190915060008201518160000160006101000a81548173ffffffffffffffffffffffffffffffffffffffff021916908373ffffffffffffffffffffffffffffffffffffffff16021790555060208201518160010190805190602001906103559291906106f1565b50604082015181600201556060820151816003015550503373ffffffffffffffffffffffffffffffffffffffff167f23b50903515aae3a73b5bd1c33764532d563394dc748f9cabbd82aa50a6991f54284346040516103b693929190610ac2565b60405180910390a26104346040518060400160405280601281526020017f42616c616e6365206f66206f776e65723a20000000000000000000000000000081525060008054906101000a900473ffffffffffffffffffffffffffffffffffffffff1673ffffffffffffffffffffffffffffffffffffffff163161062c565b5050565b60606001805480602002602001604051908101604052809291908181526020016000905b8282101561058a57838290600052602060002090600402016040518060800160405290816000820160009054906101000a900473ffffffffffffffffffffffffffffffffffffffff1673ffffffffffffffffffffffffffffffffffffffff1673ffffffffffffffffffffffffffffffffffffffff1681526020016001820180546104e590610c3a565b80601f016020809104026020016040519081016040528092919081815260200182805461051190610c3a565b801561055e5780601f106105335761010080835404028352916020019161055e565b820191906000526020600020905b81548152906001019060200180831161054157829003601f168201915b50505050508152602001600282015481526020016003820154815250508152602001906001019061045c565b50505050905090565b610629816040516024016105a79190610a30565b6040516020818303038152906040527f41304fac000000000000000000000000000000000000000000000000000000007bffffffffffffffffffffffffffffffffffffffffffffffffffffffff19166020820180517bffffffffffffffffffffffffffffffffffffffffffffffffffffffff83818316178352505050506106c8565b50565b6106c48282604051602401610642929190610a52565b6040516020818303038152906040527f9710a9d0000000000000000000000000000000000000000000000000000000007bffffffffffffffffffffffffffffffffffffffffffffffffffffffff19166020820180517bffffffffffffffffffffffffffffffffffffffffffffffffffffffff83818316178352505050506106c8565b5050565b60008151905060006a636f6e736f6c652e6c6f679050602083016000808483855afa5050505050565b8280546106fd90610c3a565b90600052602060002090601f01602090048101928261071f5760008555610766565b82601f1061073857805160ff1916838001178555610766565b82800160010185558215610766579182015b8281111561076557825182559160200191906001019061074a565b5b5090506107739190610777565b5090565b5b80821115610790576000816000905550600101610778565b5090565b60006107a76107a284610b25565b610b00565b9050828152602081018484840111156107bf57600080fd5b6107ca848285610bf8565b509392505050565b600082601f8301126107e357600080fd5b81356107f3848260208601610794565b91505092915050565b60006020828403121561080e57600080fd5b600082013567ffffffffffffffff81111561082857600080fd5b610834848285016107d2565b91505092915050565b6000610849838361098d565b905092915050565b61085a81610bbc565b82525050565b600061086b82610b66565b6108758185610b89565b93508360208202850161088785610b56565b8060005b858110156108c357848403895281516108a4858261083d565b94506108af83610b7c565b925060208a0199505060018101905061088b565b50829750879550505050505092915050565b60006108e082610b71565b6108ea8185610b9a565b93506108fa818560208601610c07565b61090381610cfb565b840191505092915050565b600061091982610b71565b6109238185610bab565b9350610933818560208601610c07565b61093c81610cfb565b840191505092915050565b6000610954602b83610bab565b915061095f82610d0c565b604082019050919050565b6000610977602283610bab565b915061098282610d5b565b604082019050919050565b60006080830160008301516109a56000860182610851565b50602083015184820360208601526109bd82826108d5565b91505060408301516109d260408601826109f0565b5060608301516109e560608601826109f0565b508091505092915050565b6109f981610bee565b82525050565b610a0881610bee565b82525050565b60006020820190508181036000830152610a288184610860565b905092915050565b60006020820190508181036000830152610a4a818461090e565b905092915050565b60006040820190508181036000830152610a6c818561090e565b9050610a7b60208301846109ff565b9392505050565b60006020820190508181036000830152610a9b81610947565b9050919050565b60006020820190508181036000830152610abb8161096a565b9050919050565b6000606082019050610ad760008301866109ff565b8181036020830152610ae9818561090e565b9050610af860408301846109ff565b949350505050565b6000610b0a610b1b565b9050610b168282610c6c565b919050565b6000604051905090565b600067ffffffffffffffff821115610b4057610b3f610ccc565b5b610b4982610cfb565b9050602081019050919050565b6000819050602082019050919050565b600081519050919050565b600081519050919050565b6000602082019050919050565b600082825260208201905092915050565b600082825260208201905092915050565b600082825260208201905092915050565b6000610bc782610bce565b9050919050565b600073ffffffffffffffffffffffffffffffffffffffff82169050919050565b6000819050919050565b82818337600083830152505050565b60005b83811015610c25578082015181840152602081019050610c0a565b83811115610c34576000848401525b50505050565b60006002820490506001821680610c5257607f821691505b60208210811415610c6657610c65610c9d565b5b50919050565b610c7582610cfb565b810181811067ffffffffffffffff82111715610c9457610c93610ccc565b5b80604052505050565b7f4e487b7100000000000000000000000000000000000000000000000000000000600052602260045260246000fd5b7f4e487b7100000000000000000000000000000000000000000000000000000000600052604160045260246000fd5b6000601f19601f8301169050919050565b7f596f75722062616c616e6365206973206e6f7420656e6f75676820746f20736560008201527f6e64206d65737361676521000000000000000000000000000000000000000000602082015250565b7f4d696e696d616c2066756e6420616d6f756e7420697320302e3030312065746860008201527f657200000000000000000000000000000000000000000000000000000000000060208201525056fea2646970667358221220cd6284e5961235a3a91ef57865248d4a60762f9f70abb7fb4b3365b872c5ceec64736f6c63430008040033",
  "linkReferences": {},
  "deployedLinkReferences": {}
}